{
  "_format": "hh-sol-artifact-1",
  "contractName": "Paychain",
  "sourceName": "contracts/Paychain.sol",
  "abi": [
    {
      "inputs": [],
      "stateMutability": "nonpayable",
      "type": "constructor"
    },
    {
      "inputs": [
        {
          "internalType": "string",
          "name": "_name",
          "type": "string"
        }
      ],
      "name": "addName",
      "outputs": [],
      "stateMutability": "nonpayable",
      "type": "function"
    },
    {
      "inputs": [
        {
          "internalType": "address",
          "name": "user",
          "type": "address"
        },
        {
          "internalType": "uint256",
          "name": "_amount",
          "type": "uint256"
        },
        {
          "internalType": "string",
          "name": "_message",
          "type": "string"
        }
      ],
      "name": "createRequest",
      "outputs": [],
      "stateMutability": "nonpayable",
      "type": "function"
    },
    {
      "inputs": [
        {
          "internalType": "address",
          "name": "_user",
          "type": "address"
        }
      ],
      "name": "getMyHistory",
      "outputs": [
        {
          "components": [
            {
              "internalType": "string",
              "name": "action",
              "type": "string"
            },
            {
              "internalType": "uint256",
              "name": "amount",
              "type": "uint256"
            },
            {
              "internalType": "string",
              "name": "message",
              "type": "string"
            },
            {
              "internalType": "address",
              "name": "otherPartyAddress",
              "type": "address"
            },
            {
              "internalType": "string",
              "name": "otherPartyName",
              "type": "string"
            }
          ],
          "internalType": "struct Paychain.sendRecieve[]",
          "name": "",
          "type": "tuple[]"
        }
      ],
      "stateMutability": "view",
      "type": "function"
    },
    {
      "inputs": [
        {
          "internalType": "address",
          "name": "_user",
          "type": "address"
        }
      ],
      "name": "getMyName",
      "outputs": [
        {
          "components": [
            {
              "internalType": "string",
              "name": "name",
              "type": "string"
            },
            {
              "internalType": "bool",
              "name": "hasName",
              "type": "bool"
            }
          ],
          "internalType": "struct Paychain.userName",
          "name": "",
          "type": "tuple"
        }
      ],
      "stateMutability": "view",
      "type": "function"
    },
    {
      "inputs": [
        {
          "internalType": "address",
          "name": "_user",
          "type": "address"
        }
      ],
      "name": "getMyRequests",
      "outputs": [
        {
          "internalType": "address[]",
          "name": "",
          "type": "address[]"
        },
        {
          "internalType": "uint256[]",
          "name": "",
          "type": "uint256[]"
        },
        {
          "internalType": "string[]",
          "name": "",
          "type": "string[]"
        },
        {
          "internalType": "string[]",
          "name": "",
          "type": "string[]"
        }
      ],
      "stateMutability": "view",
      "type": "function"
    },
    {
      "inputs": [],
      "name": "owner",
      "outputs": [
        {
          "internalType": "address",
          "name": "",
          "type": "address"
        }
      ],
      "stateMutability": "view",
      "type": "function"
    },
    {
      "inputs": [
        {
          "internalType": "uint256",
          "name": "_request",
          "type": "uint256"
        }
      ],
      "name": "payRequest",
      "outputs": [],
      "stateMutability": "payable",
      "type": "function"
    }
  ],
  "bytecode": "0x608060405234801561001057600080fd5b50336000806101000a81548173ffffffffffffffffffffffffffffffffffffffff021916908373ffffffffffffffffffffffffffffffffffffffff160217905550612662806100606000396000f3fe6080604052600436106100705760003560e01c8063370068aa1161004e578063370068aa1461011b57806363d4dd3b146101585780638da5cb5b14610174578063ba9a7a9e1461019f57610070565b806311456b4714610075578063169afbaa1461009e578063347b1b83146100db575b600080fd5b34801561008157600080fd5b5061009c6004803603810190610097919061194c565b6101c8565b005b3480156100aa57600080fd5b506100c560048036038101906100c091906119f3565b61023e565b6040516100d29190611af7565b60405180910390f35b3480156100e757600080fd5b5061010260048036038101906100fd91906119f3565b610344565b6040516101129493929190611d61565b60405180910390f35b34801561012757600080fd5b50610142600480360381019061013d91906119f3565b610858565b60405161014f9190611f08565b60405180910390f35b610172600480360381019061016d9190611f56565b610b0c565b005b34801561018057600080fd5b50610189610ef0565b6040516101969190611f92565b60405180910390f35b3480156101ab57600080fd5b506101c660048036038101906101c19190611fad565b610f14565b005b6000600160003373ffffffffffffffffffffffffffffffffffffffff1673ffffffffffffffffffffffffffffffffffffffff16815260200190815260200160002090508181600001908161021c9190612228565b5060018160010160006101000a81548160ff0219169083151502179055505050565b6102466116f6565b600160008373ffffffffffffffffffffffffffffffffffffffff1673ffffffffffffffffffffffffffffffffffffffff1681526020019081526020016000206040518060400160405290816000820180546102a09061204b565b80601f01602080910402602001604051908101604052809291908181526020018280546102cc9061204b565b80156103195780601f106102ee57610100808354040283529160200191610319565b820191906000526020600020905b8154815290600101906020018083116102fc57829003601f168201915b505050505081526020016001820160009054906101000a900460ff1615151515815250509050919050565b6060806060806000600260008773ffffffffffffffffffffffffffffffffffffffff1673ffffffffffffffffffffffffffffffffffffffff1681526020019081526020016000208054905067ffffffffffffffff8111156103a8576103a7611821565b5b6040519080825280602002602001820160405280156103d65781602001602082028036833780820191505090505b5090506000600260008873ffffffffffffffffffffffffffffffffffffffff1673ffffffffffffffffffffffffffffffffffffffff1681526020019081526020016000208054905067ffffffffffffffff81111561043757610436611821565b5b6040519080825280602002602001820160405280156104655781602001602082028036833780820191505090505b5090506000600260008973ffffffffffffffffffffffffffffffffffffffff1673ffffffffffffffffffffffffffffffffffffffff1681526020019081526020016000208054905067ffffffffffffffff8111156104c6576104c5611821565b5b6040519080825280602002602001820160405280156104f957816020015b60608152602001906001900390816104e45790505b5090506000600260008a73ffffffffffffffffffffffffffffffffffffffff1673ffffffffffffffffffffffffffffffffffffffff1681526020019081526020016000208054905067ffffffffffffffff81111561055a57610559611821565b5b60405190808252806020026020018201604052801561058d57816020015b60608152602001906001900390816105785790505b50905060005b600260008b73ffffffffffffffffffffffffffffffffffffffff1673ffffffffffffffffffffffffffffffffffffffff16815260200190815260200160002080549050811015610840576000600260008c73ffffffffffffffffffffffffffffffffffffffff1673ffffffffffffffffffffffffffffffffffffffff16815260200190815260200160002082815481106106305761062f6122fa565b5b906000526020600020906004020190508060000160009054906101000a900473ffffffffffffffffffffffffffffffffffffffff16868381518110610678576106776122fa565b5b602002602001019073ffffffffffffffffffffffffffffffffffffffff16908173ffffffffffffffffffffffffffffffffffffffff168152505080600101548583815181106106ca576106c96122fa565b5b6020026020010181815250508060020180546106e59061204b565b80601f01602080910402602001604051908101604052809291908181526020018280546107119061204b565b801561075e5780601f106107335761010080835404028352916020019161075e565b820191906000526020600020905b81548152906001019060200180831161074157829003601f168201915b5050505050848381518110610776576107756122fa565b5b60200260200101819052508060030180546107909061204b565b80601f01602080910402602001604051908101604052809291908181526020018280546107bc9061204b565b80156108095780601f106107de57610100808354040283529160200191610809565b820191906000526020600020905b8154815290600101906020018083116107ec57829003601f168201915b5050505050838381518110610821576108206122fa565b5b602002602001018190525050808061083890612358565b915050610593565b50838383839750975097509750505050509193509193565b6060600360008373ffffffffffffffffffffffffffffffffffffffff1673ffffffffffffffffffffffffffffffffffffffff168152602001908152602001600020805480602002602001604051908101604052809291908181526020016000905b82821015610b0157838290600052602060002090600502016040518060a00160405290816000820180546108ec9061204b565b80601f01602080910402602001604051908101604052809291908181526020018280546109189061204b565b80156109655780601f1061093a57610100808354040283529160200191610965565b820191906000526020600020905b81548152906001019060200180831161094857829003601f168201915b50505050508152602001600182015481526020016002820180546109889061204b565b80601f01602080910402602001604051908101604052809291908181526020018280546109b49061204b565b8015610a015780601f106109d657610100808354040283529160200191610a01565b820191906000526020600020905b8154815290600101906020018083116109e457829003601f168201915b505050505081526020016003820160009054906101000a900473ffffffffffffffffffffffffffffffffffffffff1673ffffffffffffffffffffffffffffffffffffffff1673ffffffffffffffffffffffffffffffffffffffff168152602001600482018054610a709061204b565b80601f0160208091040260200160405190810160405280929190818152602001828054610a9c9061204b565b8015610ae95780601f10610abe57610100808354040283529160200191610ae9565b820191906000526020600020905b815481529060010190602001808311610acc57829003601f168201915b505050505081525050815260200190600101906108b9565b505050509050919050565b600260003373ffffffffffffffffffffffffffffffffffffffff1673ffffffffffffffffffffffffffffffffffffffff168152602001908152602001600020805490508110610b90576040517f08c379a0000000000000000000000000000000000000000000000000000000008152600401610b87906123fd565b60405180910390fd5b6000600260003373ffffffffffffffffffffffffffffffffffffffff1673ffffffffffffffffffffffffffffffffffffffff16815260200190815260200160002090506000818381548110610be857610be76122fa565b5b906000526020600020906004020190506000670de0b6b3a76400008260010154610c12919061241d565b9050803414610c56576040517f08c379a0000000000000000000000000000000000000000000000000000000008152600401610c4d906124ab565b60405180910390fd5b8160000160009054906101000a900473ffffffffffffffffffffffffffffffffffffffff1673ffffffffffffffffffffffffffffffffffffffff166108fc349081150290604051600060405180830381858888f19350505050158015610cc0573d6000803e3d6000fd5b50610d81338360000160009054906101000a900473ffffffffffffffffffffffffffffffffffffffff168460010154856002018054610cfe9061204b565b80601f0160208091040260200160405190810160405280929190818152602001828054610d2a9061204b565b8015610d775780601f10610d4c57610100808354040283529160200191610d77565b820191906000526020600020905b815481529060010190602001808311610d5a57829003601f168201915b505050505061117e565b8260018480549050610d9391906124cb565b81548110610da457610da36122fa565b5b9060005260206000209060040201838581548110610dc557610dc46122fa565b5b90600052602060002090600402016000820160009054906101000a900473ffffffffffffffffffffffffffffffffffffffff168160000160006101000a81548173ffffffffffffffffffffffffffffffffffffffff021916908373ffffffffffffffffffffffffffffffffffffffff1602179055506001820154816001015560028201816002019081610e589190612515565b5060038201816003019081610e6d9190612515565b5090505082805480610e8257610e816125fd565b5b6001900381819060005260206000209060040201600080820160006101000a81549073ffffffffffffffffffffffffffffffffffffffff02191690556001820160009055600282016000610ed69190611712565b600382016000610ee69190611712565b5050905550505050565b60008054906101000a900473ffffffffffffffffffffffffffffffffffffffff1681565b610f1c611752565b33816000019073ffffffffffffffffffffffffffffffffffffffff16908173ffffffffffffffffffffffffffffffffffffffff168152505082816020018181525050818160400181905250600160003373ffffffffffffffffffffffffffffffffffffffff1673ffffffffffffffffffffffffffffffffffffffff16815260200190815260200160002060010160009054906101000a900460ff161561109057600160003373ffffffffffffffffffffffffffffffffffffffff1673ffffffffffffffffffffffffffffffffffffffff16815260200190815260200160002060000180546110099061204b565b80601f01602080910402602001604051908101604052809291908181526020018280546110359061204b565b80156110825780601f1061105757610100808354040283529160200191611082565b820191906000526020600020905b81548152906001019060200180831161106557829003601f168201915b505050505081606001819052505b600260008573ffffffffffffffffffffffffffffffffffffffff1673ffffffffffffffffffffffffffffffffffffffff16815260200190815260200160002081908060018154018082558091505060019003906000526020600020906004020160009091909190915060008201518160000160006101000a81548173ffffffffffffffffffffffffffffffffffffffff021916908373ffffffffffffffffffffffffffffffffffffffff16021790555060208201518160010155604082015181600201908161115f9190612228565b5060608201518160030190816111759190612228565b50505050505050565b611186611790565b6040518060400160405280600181526020017f2d0000000000000000000000000000000000000000000000000000000000000081525081600001819052508281602001818152505081816040018190525083816060019073ffffffffffffffffffffffffffffffffffffffff16908173ffffffffffffffffffffffffffffffffffffffff1681525050600160008573ffffffffffffffffffffffffffffffffffffffff1673ffffffffffffffffffffffffffffffffffffffff16815260200190815260200160002060010160009054906101000a900460ff161561133857600160008573ffffffffffffffffffffffffffffffffffffffff1673ffffffffffffffffffffffffffffffffffffffff16815260200190815260200160002060000180546112b19061204b565b80601f01602080910402602001604051908101604052809291908181526020018280546112dd9061204b565b801561132a5780601f106112ff5761010080835404028352916020019161132a565b820191906000526020600020905b81548152906001019060200180831161130d57829003601f168201915b505050505081608001819052505b600360008673ffffffffffffffffffffffffffffffffffffffff1673ffffffffffffffffffffffffffffffffffffffff16815260200190815260200160002081908060018154018082558091505060019003906000526020600020906005020160009091909190915060008201518160000190816113b69190612228565b506020820151816001015560408201518160020190816113d69190612228565b5060608201518160030160006101000a81548173ffffffffffffffffffffffffffffffffffffffff021916908373ffffffffffffffffffffffffffffffffffffffff16021790555060808201518160040190816114339190612228565b50505061143e611790565b6040518060400160405280600181526020017f2b0000000000000000000000000000000000000000000000000000000000000081525081600001819052508381602001818152505082816040018190525085816060019073ffffffffffffffffffffffffffffffffffffffff16908173ffffffffffffffffffffffffffffffffffffffff1681525050600160008773ffffffffffffffffffffffffffffffffffffffff1673ffffffffffffffffffffffffffffffffffffffff16815260200190815260200160002060010160009054906101000a900460ff16156115f057600160008773ffffffffffffffffffffffffffffffffffffffff1673ffffffffffffffffffffffffffffffffffffffff16815260200190815260200160002060000180546115699061204b565b80601f01602080910402602001604051908101604052809291908181526020018280546115959061204b565b80156115e25780601f106115b7576101008083540402835291602001916115e2565b820191906000526020600020905b8154815290600101906020018083116115c557829003601f168201915b505050505081608001819052505b600360008673ffffffffffffffffffffffffffffffffffffffff1673ffffffffffffffffffffffffffffffffffffffff168152602001908152602001600020819080600181540180825580915050600190039060005260206000209060050201600090919091909150600082015181600001908161166e9190612228565b5060208201518160010155604082015181600201908161168e9190612228565b5060608201518160030160006101000a81548173ffffffffffffffffffffffffffffffffffffffff021916908373ffffffffffffffffffffffffffffffffffffffff16021790555060808201518160040190816116eb9190612228565b505050505050505050565b6040518060400160405280606081526020016000151581525090565b50805461171e9061204b565b6000825580601f10611730575061174f565b601f01602090049060005260206000209081019061174e91906117d5565b5b50565b6040518060800160405280600073ffffffffffffffffffffffffffffffffffffffff1681526020016000815260200160608152602001606081525090565b6040518060a00160405280606081526020016000815260200160608152602001600073ffffffffffffffffffffffffffffffffffffffff168152602001606081525090565b5b808211156117ee5760008160009055506001016117d6565b5090565b6000604051905090565b600080fd5b600080fd5b600080fd5b600080fd5b6000601f19601f8301169050919050565b7f4e487b7100000000000000000000000000000000000000000000000000000000600052604160045260246000fd5b61185982611810565b810181811067ffffffffffffffff8211171561187857611877611821565b5b80604052505050565b600061188b6117f2565b90506118978282611850565b919050565b600067ffffffffffffffff8211156118b7576118b6611821565b5b6118c082611810565b9050602081019050919050565b82818337600083830152505050565b60006118ef6118ea8461189c565b611881565b90508281526020810184848401111561190b5761190a61180b565b5b6119168482856118cd565b509392505050565b600082601f83011261193357611932611806565b5b81356119438482602086016118dc565b91505092915050565b600060208284031215611962576119616117fc565b5b600082013567ffffffffffffffff8111156119805761197f611801565b5b61198c8482850161191e565b91505092915050565b600073ffffffffffffffffffffffffffffffffffffffff82169050919050565b60006119c082611995565b9050919050565b6119d0816119b5565b81146119db57600080fd5b50565b6000813590506119ed816119c7565b92915050565b600060208284031215611a0957611a086117fc565b5b6000611a17848285016119de565b91505092915050565b600081519050919050565b600082825260208201905092915050565b60005b83811015611a5a578082015181840152602081019050611a3f565b60008484015250505050565b6000611a7182611a20565b611a7b8185611a2b565b9350611a8b818560208601611a3c565b611a9481611810565b840191505092915050565b60008115159050919050565b611ab481611a9f565b82525050565b60006040830160008301518482036000860152611ad78282611a66565b9150506020830151611aec6020860182611aab565b508091505092915050565b60006020820190508181036000830152611b118184611aba565b905092915050565b600081519050919050565b600082825260208201905092915050565b6000819050602082019050919050565b611b4e816119b5565b82525050565b6000611b608383611b45565b60208301905092915050565b6000602082019050919050565b6000611b8482611b19565b611b8e8185611b24565b9350611b9983611b35565b8060005b83811015611bca578151611bb18882611b54565b9750611bbc83611b6c565b925050600181019050611b9d565b5085935050505092915050565b600081519050919050565b600082825260208201905092915050565b6000819050602082019050919050565b6000819050919050565b611c1681611c03565b82525050565b6000611c288383611c0d565b60208301905092915050565b6000602082019050919050565b6000611c4c82611bd7565b611c568185611be2565b9350611c6183611bf3565b8060005b83811015611c92578151611c798882611c1c565b9750611c8483611c34565b925050600181019050611c65565b5085935050505092915050565b600081519050919050565b600082825260208201905092915050565b6000819050602082019050919050565b6000611cd78383611a66565b905092915050565b6000602082019050919050565b6000611cf782611c9f565b611d018185611caa565b935083602082028501611d1385611cbb565b8060005b85811015611d4f5784840389528151611d308582611ccb565b9450611d3b83611cdf565b925060208a01995050600181019050611d17565b50829750879550505050505092915050565b60006080820190508181036000830152611d7b8187611b79565b90508181036020830152611d8f8186611c41565b90508181036040830152611da38185611cec565b90508181036060830152611db78184611cec565b905095945050505050565b600081519050919050565b600082825260208201905092915050565b6000819050602082019050919050565b600060a0830160008301518482036000860152611e0b8282611a66565b9150506020830151611e206020860182611c0d565b5060408301518482036040860152611e388282611a66565b9150506060830151611e4d6060860182611b45565b5060808301518482036080860152611e658282611a66565b9150508091505092915050565b6000611e7e8383611dee565b905092915050565b6000602082019050919050565b6000611e9e82611dc2565b611ea88185611dcd565b935083602082028501611eba85611dde565b8060005b85811015611ef65784840389528151611ed78582611e72565b9450611ee283611e86565b925060208a01995050600181019050611ebe565b50829750879550505050505092915050565b60006020820190508181036000830152611f228184611e93565b905092915050565b611f3381611c03565b8114611f3e57600080fd5b50565b600081359050611f5081611f2a565b92915050565b600060208284031215611f6c57611f6b6117fc565b5b6000611f7a84828501611f41565b91505092915050565b611f8c816119b5565b82525050565b6000602082019050611fa76000830184611f83565b92915050565b600080600060608486031215611fc657611fc56117fc565b5b6000611fd4868287016119de565b9350506020611fe586828701611f41565b925050604084013567ffffffffffffffff81111561200657612005611801565b5b6120128682870161191e565b9150509250925092565b7f4e487b7100000000000000000000000000000000000000000000000000000000600052602260045260246000fd5b6000600282049050600182168061206357607f821691505b6020821081036120765761207561201c565b5b50919050565b60008190508160005260206000209050919050565b60006020601f8301049050919050565b600082821b905092915050565b6000600883026120de7fffffffffffffffffffffffffffffffffffffffffffffffffffffffffffffffff826120a1565b6120e886836120a1565b95508019841693508086168417925050509392505050565b6000819050919050565b600061212561212061211b84611c03565b612100565b611c03565b9050919050565b6000819050919050565b61213f8361210a565b61215361214b8261212c565b8484546120ae565b825550505050565b600090565b61216861215b565b612173818484612136565b505050565b5b818110156121975761218c600082612160565b600181019050612179565b5050565b601f8211156121dc576121ad8161207c565b6121b684612091565b810160208510156121c5578190505b6121d96121d185612091565b830182612178565b50505b505050565b600082821c905092915050565b60006121ff600019846008026121e1565b1980831691505092915050565b600061221883836121ee565b9150826002028217905092915050565b61223182611a20565b67ffffffffffffffff81111561224a57612249611821565b5b612254825461204b565b61225f82828561219b565b600060209050601f8311600181146122925760008415612280578287015190505b61228a858261220c565b8655506122f2565b601f1984166122a08661207c565b60005b828110156122c8578489015182556001820191506020850194506020810190506122a3565b868310156122e557848901516122e1601f8916826121ee565b8355505b6001600288020188555050505b505050505050565b7f4e487b7100000000000000000000000000000000000000000000000000000000600052603260045260246000fd5b7f4e487b7100000000000000000000000000000000000000000000000000000000600052601160045260246000fd5b600061236382611c03565b91507fffffffffffffffffffffffffffffffffffffffffffffffffffffffffffffffff820361239557612394612329565b5b600182019050919050565b600082825260208201905092915050565b7f4e6f205375636820526571756573740000000000000000000000000000000000600082015250565b60006123e7600f836123a0565b91506123f2826123b1565b602082019050919050565b60006020820190508181036000830152612416816123da565b9050919050565b600061242882611c03565b915061243383611c03565b925082820261244181611c03565b9150828204841483151761245857612457612329565b5b5092915050565b7f50617920436f727265637420416d6f756e740000000000000000000000000000600082015250565b60006124956012836123a0565b91506124a08261245f565b602082019050919050565b600060208201905081810360008301526124c481612488565b9050919050565b60006124d682611c03565b91506124e183611c03565b92508282039050818111156124f9576124f8612329565b5b92915050565b60008154905061250e8161204b565b9050919050565b8181036125235750506125fb565b61252c826124ff565b67ffffffffffffffff81111561254557612544611821565b5b61254f825461204b565b61255a82828561219b565b6000601f8311600181146125895760008415612577578287015490505b612581858261220c565b8655506125f4565b601f1984166125978761207c565b96506125a28661207c565b60005b828110156125ca578489015482556001820191506001850194506020810190506125a5565b868310156125e757848901546125e3601f8916826121ee565b8355505b6001600288020188555050505b5050505050505b565b7f4e487b7100000000000000000000000000000000000000000000000000000000600052603160045260246000fdfea2646970667358221220420de4ec8704c5a231f1667fd118429f91996dfa4248614b166fade20906c1b064736f6c63430008130033",
  "linkReferences": {},
  "deployedLinkReferences": {}
}